:100A4200C2B600E4FEEEC39408748094805017EF9F
:100A5200C4131313540124FF92B4EF25E0FFC2B66E
:060A620000C2B60E80DFA9
:010A6800226B
:100A1A00E4FFFEC2B600FDEDC3940C7480948050CE
:100A2A0016EF25E0FFEE33FED2B600C2B600A2B73B
:070A3A00E43342070D80E0E8
:010A41002292
:100A6900E4FDFCC2B6C2B5120A4200000000000053
:0D0A79000000D2B600C2B600120A1AD2B5B3
:010A8600224D
:100A870011083F065B4F666D7D077F6F777C395E88
:030A970079710072
:10080000751F64E4F520ED14F521F51FC3E51F9471
:1008100008748094805077E51FB40800504D90080C
:1008200025F828287302083D0208410208450208FD
:100830004902084D02085502085D020865D2A480ED
:100840000ED2A48012D2A48016D2A4801AC2A4D23E
:10085000A3D2A28016C2A4D2A3C2A2800EC2A4C2F6
:10086000A3D2A28006C2A4C2A3C2A2C3E51F95213F
:10087000FFE494008F82F58312091BF580AF1F15EA
:0E0880001FEF6005E4F58080F4051F02080CF0
:01088E002247
:10099D00E4F519F51A7FA4120A698E198F1A7C03D2
:1009AD007DE812094874082FF8E6F51BAE19AF1A49
:1009BD007C037DE8120948AA04AB057D647C00AF79
:1009CD0003AE0212094874082FF8E6F51C7D647C0D
:1009DD0000AF03AE02120948AA04AB057D0A7C00E4
:1009ED00AF03AE0212094874082FF8E6F51D7D0A13
:1009FD007C00AF03AE0212094874082DF8E6F51E0F
:0D0A0D007B007A00791B7D051208008088AF
:0300000002088F64
:0C088F00787FE4F6D8FD7581210208D6C0
:10091B00BB010CE58229F582E5833AF583E0225091
:10092B0006E92582F8E622BBFE06E92582F8E222DB
:0D093B00E58229F582E5833AF583E49322F5
:10094800BC000BBE0029EF8DF084FFADF022E4CC93
:10095800F875F008EF2FFFEE33FEEC33FCEE9DEC5C
:10096800984005FCEE9DFE0FD5F0E9E4CEFD22EDA2
:10097800F8F5F0EE8420D21CFEADF075F008EF2FEC
:10098800FFED33FD4007985006D5F0F222C398FDDD
:050998000FD5F0EA227A
:10089B0002099DE493A3F8E493A34003F68001F2CD
:1008AB0008DFF48029E493A3F85407240CC8C3335E
:1008BB00C4540F4420C8834004F456800146F6DF2D
:1008CB00E4800B0102040810204080900A87E47E2C
:1008DB00019360BCA3FF543F30E509541FFEE49322
:1008EB00A360010ECF54C025E060A840B8E493A3E9
:1008FB00FAE493A3F8E493A3C8C582C8CAC583CA14
:10090B00F0A3C8C582C8CAC583CADFE9DEE780BECB
:010A9A00005B
:00000001FF
